{
  "_format": "hh-sol-artifact-1",
  "contractName": "TextbookNFT",
  "sourceName": "contracts/TextbookNFT.sol",
  "abi": [
    {
      "inputs": [],
      "stateMutability": "nonpayable",
      "type": "constructor"
    },
    {
      "anonymous": false,
      "inputs": [
        {
          "indexed": true,
          "internalType": "address",
          "name": "owner",
          "type": "address"
        },
        {
          "indexed": true,
          "internalType": "address",
          "name": "approved",
          "type": "address"
        },
        {
          "indexed": true,
          "internalType": "uint256",
          "name": "tokenId",
          "type": "uint256"
        }
      ],
      "name": "Approval",
      "type": "event"
    },
    {
      "anonymous": false,
      "inputs": [
        {
          "indexed": true,
          "internalType": "address",
          "name": "owner",
          "type": "address"
        },
        {
          "indexed": true,
          "internalType": "address",
          "name": "operator",
          "type": "address"
        },
        {
          "indexed": false,
          "internalType": "bool",
          "name": "approved",
          "type": "bool"
        }
      ],
      "name": "ApprovalForAll",
      "type": "event"
    },
    {
      "anonymous": false,
      "inputs": [
        {
          "indexed": true,
          "internalType": "address",
          "name": "from",
          "type": "address"
        },
        {
          "indexed": true,
          "internalType": "address",
          "name": "to",
          "type": "address"
        },
        {
          "indexed": true,
          "internalType": "uint256",
          "name": "tokenId",
          "type": "uint256"
        }
      ],
      "name": "Transfer",
      "type": "event"
    },
    {
      "inputs": [
        {
          "internalType": "address",
          "name": "to",
          "type": "address"
        },
        {
          "internalType": "uint256",
          "name": "tokenId",
          "type": "uint256"
        }
      ],
      "name": "approve",
      "outputs": [],
      "stateMutability": "nonpayable",
      "type": "function"
    },
    {
      "inputs": [
        {
          "internalType": "address",
          "name": "owner",
          "type": "address"
        }
      ],
      "name": "balanceOf",
      "outputs": [
        {
          "internalType": "uint256",
          "name": "",
          "type": "uint256"
        }
      ],
      "stateMutability": "view",
      "type": "function"
    },
    {
      "inputs": [
        {
          "internalType": "uint256",
          "name": "tokenId",
          "type": "uint256"
        }
      ],
      "name": "getApproved",
      "outputs": [
        {
          "internalType": "address",
          "name": "",
          "type": "address"
        }
      ],
      "stateMutability": "view",
      "type": "function"
    },
    {
      "inputs": [
        {
          "internalType": "address",
          "name": "owner",
          "type": "address"
        },
        {
          "internalType": "address",
          "name": "operator",
          "type": "address"
        }
      ],
      "name": "isApprovedForAll",
      "outputs": [
        {
          "internalType": "bool",
          "name": "",
          "type": "bool"
        }
      ],
      "stateMutability": "view",
      "type": "function"
    },
    {
      "inputs": [],
      "name": "makeNFT",
      "outputs": [],
      "stateMutability": "nonpayable",
      "type": "function"
    },
    {
      "inputs": [],
      "name": "name",
      "outputs": [
        {
          "internalType": "string",
          "name": "",
          "type": "string"
        }
      ],
      "stateMutability": "view",
      "type": "function"
    },
    {
      "inputs": [
        {
          "internalType": "uint256",
          "name": "tokenId",
          "type": "uint256"
        }
      ],
      "name": "ownerOf",
      "outputs": [
        {
          "internalType": "address",
          "name": "",
          "type": "address"
        }
      ],
      "stateMutability": "view",
      "type": "function"
    },
    {
      "inputs": [],
      "name": "readTextbook",
      "outputs": [],
      "stateMutability": "nonpayable",
      "type": "function"
    },
    {
      "inputs": [
        {
          "internalType": "address",
          "name": "from",
          "type": "address"
        },
        {
          "internalType": "address",
          "name": "to",
          "type": "address"
        },
        {
          "internalType": "uint256",
          "name": "tokenId",
          "type": "uint256"
        }
      ],
      "name": "safeTransferFrom",
      "outputs": [],
      "stateMutability": "nonpayable",
      "type": "function"
    },
    {
      "inputs": [
        {
          "internalType": "address",
          "name": "from",
          "type": "address"
        },
        {
          "internalType": "address",
          "name": "to",
          "type": "address"
        },
        {
          "internalType": "uint256",
          "name": "tokenId",
          "type": "uint256"
        },
        {
          "internalType": "bytes",
          "name": "_data",
          "type": "bytes"
        }
      ],
      "name": "safeTransferFrom",
      "outputs": [],
      "stateMutability": "nonpayable",
      "type": "function"
    },
    {
      "inputs": [
        {
          "internalType": "address",
          "name": "operator",
          "type": "address"
        },
        {
          "internalType": "bool",
          "name": "approved",
          "type": "bool"
        }
      ],
      "name": "setApprovalForAll",
      "outputs": [],
      "stateMutability": "nonpayable",
      "type": "function"
    },
    {
      "inputs": [
        {
          "internalType": "bytes4",
          "name": "interfaceId",
          "type": "bytes4"
        }
      ],
      "name": "supportsInterface",
      "outputs": [
        {
          "internalType": "bool",
          "name": "",
          "type": "bool"
        }
      ],
      "stateMutability": "view",
      "type": "function"
    },
    {
      "inputs": [],
      "name": "symbol",
      "outputs": [
        {
          "internalType": "string",
          "name": "",
          "type": "string"
        }
      ],
      "stateMutability": "view",
      "type": "function"
    },
    {
      "inputs": [
        {
          "internalType": "uint256",
          "name": "tokenId",
          "type": "uint256"
        }
      ],
      "name": "tokenURI",
      "outputs": [
        {
          "internalType": "string",
          "name": "",
          "type": "string"
        }
      ],
      "stateMutability": "view",
      "type": "function"
    },
    {
      "inputs": [
        {
          "internalType": "address",
          "name": "from",
          "type": "address"
        },
        {
          "internalType": "address",
          "name": "to",
          "type": "address"
        },
        {
          "internalType": "uint256",
          "name": "tokenId",
          "type": "uint256"
        }
      ],
      "name": "transferFrom",
      "outputs": [],
      "stateMutability": "nonpayable",
      "type": "function"
    }
  ],
  "bytecode": "0x60806040523480156200001157600080fd5b506040518060400160405280600b81526020017f54657874626f6f6b4e46540000000000000000000000000000000000000000008152506040518060400160405280600881526020017f54657874626f6f6b000000000000000000000000000000000000000000000000815250816000908051906020019062000096929190620001cf565b508060019080519060200190620000af929190620001cf565b505050620000fd6040518060400160405280601e81526020017f54686973206973206d79204e465420636f6e74726163742e2057686f612100008152506200010360201b62000cd11760201c565b620003ac565b620001a3816040516024016200011a9190620002c0565b6040516020818303038152906040527f41304fac000000000000000000000000000000000000000000000000000000007bffffffffffffffffffffffffffffffffffffffffffffffffffffffff19166020820180517bffffffffffffffffffffffffffffffffffffffffffffffffffffffff8381831617835250505050620001a660201b60201c565b50565b60008151905060006a636f6e736f6c652e6c6f679050602083016000808483855afa5050505050565b828054620001dd9062000336565b90600052602060002090601f0160209004810192826200020157600085556200024d565b82601f106200021c57805160ff19168380011785556200024d565b828001600101855582156200024d579182015b828111156200024c5782518255916020019190600101906200022f565b5b5090506200025c919062000260565b5090565b5b808211156200027b57600081600090555060010162000261565b5090565b60006200028c82620002e4565b620002988185620002ef565b9350620002aa81856020860162000300565b620002b5816200039b565b840191505092915050565b60006020820190508181036000830152620002dc81846200027f565b905092915050565b600081519050919050565b600082825260208201905092915050565b60005b838110156200032057808201518184015260208101905062000303565b8381111562000330576000848401525b50505050565b600060028204905060018216806200034f57607f821691505b602082108114156200036657620003656200036c565b5b50919050565b7f4e487b7100000000000000000000000000000000000000000000000000000000600052602260045260246000fd5b6000601f19601f8301169050919050565b61361680620003bc6000396000f3fe608060405234801561001057600080fd5b50600436106100f55760003560e01c806370a0823111610097578063b036b4bd11610066578063b036b4bd14610270578063b88d4fde1461027a578063c87b56dd14610296578063e985e9c5146102c6576100f5565b806370a08231146101fc57806385dfb7fc1461022c57806395d89b4114610236578063a22cb46514610254576100f5565b8063095ea7b3116100d3578063095ea7b31461017857806323b872dd1461019457806342842e0e146101b05780636352211e146101cc576100f5565b806301ffc9a7146100fa57806306fdde031461012a578063081812fc14610148575b600080fd5b610114600480360381019061010f919061209e565b6102f6565b6040516101219190612b25565b60405180910390f35b6101326103d8565b60405161013f9190612b40565b60405180910390f35b610162600480360381019061015d91906120f0565b61046a565b60405161016f9190612abe565b60405180910390f35b610192600480360381019061018d9190612062565b6104ef565b005b6101ae60048036038101906101a99190611f5c565b610607565b005b6101ca60048036038101906101c59190611f5c565b610667565b005b6101e660048036038101906101e191906120f0565b610687565b6040516101f39190612abe565b60405180910390f35b61021660048036038101906102119190611ef7565b610739565b6040516102239190612da0565b60405180910390f35b6102346107f1565b005b61023e610814565b60405161024b9190612b40565b60405180910390f35b61026e60048036038101906102699190612026565b6108a6565b005b6102786108bc565b005b610294600480360381019061028f9190611fab565b610a89565b005b6102b060048036038101906102ab91906120f0565b610aeb565b6040516102bd9190612b40565b60405180910390f35b6102e060048036038101906102db9190611f20565b610c3d565b6040516102ed9190612b25565b60405180910390f35b60007f80ac58cd000000000000000000000000000000000000000000000000000000007bffffffffffffffffffffffffffffffffffffffffffffffffffffffff1916827bffffffffffffffffffffffffffffffffffffffffffffffffffffffff191614806103c157507f5b5e139f000000000000000000000000000000000000000000000000000000007bffffffffffffffffffffffffffffffffffffffffffffffffffffffff1916827bffffffffffffffffffffffffffffffffffffffffffffffffffffffff1916145b806103d157506103d082610d6a565b5b9050919050565b6060600080546103e79061302a565b80601f01602080910402602001604051908101604052809291908181526020018280546104139061302a565b80156104605780601f1061043557610100808354040283529160200191610460565b820191906000526020600020905b81548152906001019060200180831161044357829003601f168201915b5050505050905090565b600061047582610dd4565b6104b4576040517f08c379a00000000000000000000000000000000000000000000000000000000081526004016104ab90612d00565b60405180910390fd5b6004600083815260200190815260200160002060009054906101000a900473ffffffffffffffffffffffffffffffffffffffff169050919050565b60006104fa82610687565b90508073ffffffffffffffffffffffffffffffffffffffff168373ffffffffffffffffffffffffffffffffffffffff16141561056b576040517f08c379a000000000000000000000000000000000000000000000000000000000815260040161056290612d60565b60405180910390fd5b8073ffffffffffffffffffffffffffffffffffffffff1661058a610e40565b73ffffffffffffffffffffffffffffffffffffffff1614806105b957506105b8816105b3610e40565b610c3d565b5b6105f8576040517f08c379a00000000000000000000000000000000000000000000000000000000081526004016105ef90612c40565b60405180910390fd5b6106028383610e48565b505050565b610618610612610e40565b82610f01565b610657576040517f08c379a000000000000000000000000000000000000000000000000000000000815260040161064e90612d80565b60405180910390fd5b610662838383610fdf565b505050565b61068283838360405180602001604052806000815250610a89565b505050565b6000806002600084815260200190815260200160002060009054906101000a900473ffffffffffffffffffffffffffffffffffffffff169050600073ffffffffffffffffffffffffffffffffffffffff168173ffffffffffffffffffffffffffffffffffffffff161415610730576040517f08c379a000000000000000000000000000000000000000000000000000000000815260040161072790612c80565b60405180910390fd5b80915050919050565b60008073ffffffffffffffffffffffffffffffffffffffff168273ffffffffffffffffffffffffffffffffffffffff1614156107aa576040517f08c379a00000000000000000000000000000000000000000000000000000000081526004016107a190612c60565b60405180910390fd5b600360008373ffffffffffffffffffffffffffffffffffffffff1673ffffffffffffffffffffffffffffffffffffffff168152602001908152602001600020549050919050565b6108126040518060600160405280602381526020016135be60239139610cd1565b565b6060600180546108239061302a565b80601f016020809104026020016040519081016040528092919081815260200182805461084f9061302a565b801561089c5780601f106108715761010080835404028352916020019161089c565b820191906000526020600020905b81548152906001019060200180831161087f57829003601f168201915b5050505050905090565b6108b86108b1610e40565b838361123b565b5050565b60006108c860076113a8565b905060006040518060400160405280601281526020017f4d6173746572696e6720457468657265756d000000000000000000000000000081525090506000816040516020016109179190612a13565b6040516020818303038152906040529050600061095c83610937846113b6565b604051602001610948929190612a57565b6040516020818303038152906040526113b6565b90506000816040516020016109719190612a9c565b60405160208183030381529060405290506109c06040518060400160405280601581526020017f0a2d2d2d2d2d2d2d2d2d2d2d2d2d2d2d2d2d2d2d2d0000000000000000000000815250610cd1565b6109e8816040516020016109d49190612a35565b604051602081830303815290604052610cd1565b610a266040518060400160405280601581526020017f2d2d2d2d2d2d2d2d2d2d2d2d2d2d2d2d2d2d2d2d0a0000000000000000000000815250610cd1565b610a303386611574565b610a558560405180610380016040528061035981526020016132256103599139611592565b610a5f6007611606565b610a8260405180606001604052806025815260200161320060259139863361161c565b5050505050565b610a9a610a94610e40565b83610f01565b610ad9576040517f08c379a0000000000000000000000000000000000000000000000000000000008152600401610ad090612d80565b60405180910390fd5b610ae5848484846116bb565b50505050565b6060610af682610dd4565b610b35576040517f08c379a0000000000000000000000000000000000000000000000000000000008152600401610b2c90612ce0565b60405180910390fd5b6000600660008481526020019081526020016000208054610b559061302a565b80601f0160208091040260200160405190810160405280929190818152602001828054610b819061302a565b8015610bce5780601f10610ba357610100808354040283529160200191610bce565b820191906000526020600020905b815481529060010190602001808311610bb157829003601f168201915b505050505090506000610bdf611717565b9050600081511415610bf5578192505050610c38565b600082511115610c2a578082604051602001610c129291906129ef565b60405160208183030381529060405292505050610c38565b610c338461172e565b925050505b919050565b6000600560008473ffffffffffffffffffffffffffffffffffffffff1673ffffffffffffffffffffffffffffffffffffffff16815260200190815260200160002060008373ffffffffffffffffffffffffffffffffffffffff1673ffffffffffffffffffffffffffffffffffffffff16815260200190815260200160002060009054906101000a900460ff16905092915050565b610d6781604051602401610ce59190612b40565b6040516020818303038152906040527f41304fac000000000000000000000000000000000000000000000000000000007bffffffffffffffffffffffffffffffffffffffffffffffffffffffff19166020820180517bffffffffffffffffffffffffffffffffffffffffffffffffffffffff83818316178352505050506117d5565b50565b60007f01ffc9a7000000000000000000000000000000000000000000000000000000007bffffffffffffffffffffffffffffffffffffffffffffffffffffffff1916827bffffffffffffffffffffffffffffffffffffffffffffffffffffffff1916149050919050565b60008073ffffffffffffffffffffffffffffffffffffffff166002600084815260200190815260200160002060009054906101000a900473ffffffffffffffffffffffffffffffffffffffff1673ffffffffffffffffffffffffffffffffffffffff1614159050919050565b600033905090565b816004600083815260200190815260200160002060006101000a81548173ffffffffffffffffffffffffffffffffffffffff021916908373ffffffffffffffffffffffffffffffffffffffff160217905550808273ffffffffffffffffffffffffffffffffffffffff16610ebb83610687565b73ffffffffffffffffffffffffffffffffffffffff167f8c5be1e5ebec7d5bd14f71427d1e84f3dd0314c0f7b2291e5b200ac8c7c3b92560405160405180910390a45050565b6000610f0c82610dd4565b610f4b576040517f08c379a0000000000000000000000000000000000000000000000000000000008152600401610f4290612c20565b60405180910390fd5b6000610f5683610687565b90508073ffffffffffffffffffffffffffffffffffffffff168473ffffffffffffffffffffffffffffffffffffffff161480610fc557508373ffffffffffffffffffffffffffffffffffffffff16610fad8461046a565b73ffffffffffffffffffffffffffffffffffffffff16145b80610fd65750610fd58185610c3d565b5b91505092915050565b8273ffffffffffffffffffffffffffffffffffffffff16610fff82610687565b73ffffffffffffffffffffffffffffffffffffffff1614611055576040517f08c379a000000000000000000000000000000000000000000000000000000000815260040161104c90612d20565b60405180910390fd5b600073ffffffffffffffffffffffffffffffffffffffff168273ffffffffffffffffffffffffffffffffffffffff1614156110c5576040517f08c379a00000000000000000000000000000000000000000000000000000000081526004016110bc90612be0565b60405180910390fd5b6110d08383836117fe565b6110db600082610e48565b6001600360008573ffffffffffffffffffffffffffffffffffffffff1673ffffffffffffffffffffffffffffffffffffffff168152602001908152602001600020600082825461112b9190612f40565b925050819055506001600360008473ffffffffffffffffffffffffffffffffffffffff1673ffffffffffffffffffffffffffffffffffffffff16815260200190815260200160002060008282546111829190612e5f565b92505081905550816002600083815260200190815260200160002060006101000a81548173ffffffffffffffffffffffffffffffffffffffff021916908373ffffffffffffffffffffffffffffffffffffffff160217905550808273ffffffffffffffffffffffffffffffffffffffff168473ffffffffffffffffffffffffffffffffffffffff167fddf252ad1be2c89b69c2b068fc378daa952ba7f163c4a11628f55a4df523b3ef60405160405180910390a4505050565b8173ffffffffffffffffffffffffffffffffffffffff168373ffffffffffffffffffffffffffffffffffffffff1614156112aa576040517f08c379a00000000000000000000000000000000000000000000000000000000081526004016112a190612c00565b60405180910390fd5b80600560008573ffffffffffffffffffffffffffffffffffffffff1673ffffffffffffffffffffffffffffffffffffffff16815260200190815260200160002060008473ffffffffffffffffffffffffffffffffffffffff1673ffffffffffffffffffffffffffffffffffffffff16815260200190815260200160002060006101000a81548160ff0219169083151502179055508173ffffffffffffffffffffffffffffffffffffffff168373ffffffffffffffffffffffffffffffffffffffff167f17307eab39ab6107e8899845ad3d59bd9653f200f220920489ca2b5937696c318360405161139b9190612b25565b60405180910390a3505050565b600081600001549050919050565b606060008251905060008114156113df576040518060200160405280600081525091505061156f565b600060036002836113f09190612e5f565b6113fa9190612eb5565b60046114069190612ee6565b905060006020826114179190612e5f565b67ffffffffffffffff811115611456577f4e487b7100000000000000000000000000000000000000000000000000000000600052604160045260246000fd5b6040519080825280601f01601f1916602001820160405280156114885781602001600182028036833780820191505090505b509050600060405180606001604052806040815260200161357e604091399050600181016020830160005b8681101561152c5760038101905062ffffff818a015116603f8160121c168401518060081b905060ff603f83600c1c1686015116810190508060081b905060ff603f8360061c1686015116810190508060081b905060ff603f831686015116810190508060e01b905080845260048401935050506114b3565b506003860660018114611546576002811461155657611561565b613d3d60f01b6002830352611561565b603d60f81b60018303525b508484525050819450505050505b919050565b61158e828260405180602001604052806000815250611803565b5050565b61159b82610dd4565b6115da576040517f08c379a00000000000000000000000000000000000000000000000000000000081526004016115d190612ca0565b60405180910390fd5b80600660008481526020019081526020016000209080519060200190611601929190611d83565b505050565b6001816000016000828254019250508190555050565b6116b683838360405160240161163493929190612b62565b6040516020818303038152906040527fe3849f79000000000000000000000000000000000000000000000000000000007bffffffffffffffffffffffffffffffffffffffffffffffffffffffff19166020820180517bffffffffffffffffffffffffffffffffffffffffffffffffffffffff83818316178352505050506117d5565b505050565b6116c6848484610fdf565b6116d28484848461185e565b611711576040517f08c379a000000000000000000000000000000000000000000000000000000000815260040161170890612ba0565b60405180910390fd5b50505050565b606060405180602001604052806000815250905090565b606061173982610dd4565b611778576040517f08c379a000000000000000000000000000000000000000000000000000000000815260040161176f90612d40565b60405180910390fd5b6000611782611717565b905060008151116117a257604051806020016040528060008152506117cd565b806117ac846119f5565b6040516020016117bd9291906129ef565b6040516020818303038152906040525b915050919050565b60008151905060006a636f6e736f6c652e6c6f679050602083016000808483855afa5050505050565b505050565b61180d8383611ba2565b61181a600084848461185e565b611859576040517f08c379a000000000000000000000000000000000000000000000000000000000815260040161185090612ba0565b60405180910390fd5b505050565b600061187f8473ffffffffffffffffffffffffffffffffffffffff16611d70565b156119e8578373ffffffffffffffffffffffffffffffffffffffff1663150b7a026118a8610e40565b8786866040518563ffffffff1660e01b81526004016118ca9493929190612ad9565b602060405180830381600087803b1580156118e457600080fd5b505af192505050801561191557506040513d601f19601f8201168201806040525081019061191291906120c7565b60015b611998573d8060008114611945576040519150601f19603f3d011682016040523d82523d6000602084013e61194a565b606091505b50600081511415611990576040517f08c379a000000000000000000000000000000000000000000000000000000000815260040161198790612ba0565b60405180910390fd5b805181602001fd5b63150b7a0260e01b7bffffffffffffffffffffffffffffffffffffffffffffffffffffffff1916817bffffffffffffffffffffffffffffffffffffffffffffffffffffffff1916149150506119ed565b600190505b949350505050565b60606000821415611a3d576040518060400160405280600181526020017f30000000000000000000000000000000000000000000000000000000000000008152509050611b9d565b600082905060005b60008214611a6f578080611a589061305c565b915050600a82611a689190612eb5565b9150611a45565b60008167ffffffffffffffff811115611ab1577f4e487b7100000000000000000000000000000000000000000000000000000000600052604160045260246000fd5b6040519080825280601f01601f191660200182016040528015611ae35781602001600182028036833780820191505090505b5090505b60008514611b9657600182611afc9190612f40565b9150600a85611b0b91906130a5565b6030611b179190612e5f565b60f81b818381518110611b53577f4e487b7100000000000000000000000000000000000000000000000000000000600052603260045260246000fd5b60200101907effffffffffffffffffffffffffffffffffffffffffffffffffffffffffffff1916908160001a905350600a85611b8f9190612eb5565b9450611ae7565b8093505050505b919050565b600073ffffffffffffffffffffffffffffffffffffffff168273ffffffffffffffffffffffffffffffffffffffff161415611c12576040517f08c379a0000000000000000000000000000000000000000000000000000000008152600401611c0990612cc0565b60405180910390fd5b611c1b81610dd4565b15611c5b576040517f08c379a0000000000000000000000000000000000000000000000000000000008152600401611c5290612bc0565b60405180910390fd5b611c67600083836117fe565b6001600360008473ffffffffffffffffffffffffffffffffffffffff1673ffffffffffffffffffffffffffffffffffffffff1681526020019081526020016000206000828254611cb79190612e5f565b92505081905550816002600083815260200190815260200160002060006101000a81548173ffffffffffffffffffffffffffffffffffffffff021916908373ffffffffffffffffffffffffffffffffffffffff160217905550808273ffffffffffffffffffffffffffffffffffffffff16600073ffffffffffffffffffffffffffffffffffffffff167fddf252ad1be2c89b69c2b068fc378daa952ba7f163c4a11628f55a4df523b3ef60405160405180910390a45050565b600080823b905060008111915050919050565b828054611d8f9061302a565b90600052602060002090601f016020900481019282611db15760008555611df8565b82601f10611dca57805160ff1916838001178555611df8565b82800160010185558215611df8579182015b82811115611df7578251825591602001919060010190611ddc565b5b509050611e059190611e09565b5090565b5b80821115611e22576000816000905550600101611e0a565b5090565b6000611e39611e3484612dec565b612dbb565b905082815260208101848484011115611e5157600080fd5b611e5c848285612fe8565b509392505050565b600081359050611e73816131a3565b92915050565b600081359050611e88816131ba565b92915050565b600081359050611e9d816131d1565b92915050565b600081519050611eb2816131d1565b92915050565b600082601f830112611ec957600080fd5b8135611ed9848260208601611e26565b91505092915050565b600081359050611ef1816131e8565b92915050565b600060208284031215611f0957600080fd5b6000611f1784828501611e64565b91505092915050565b60008060408385031215611f3357600080fd5b6000611f4185828601611e64565b9250506020611f5285828601611e64565b9150509250929050565b600080600060608486031215611f7157600080fd5b6000611f7f86828701611e64565b9350506020611f9086828701611e64565b9250506040611fa186828701611ee2565b9150509250925092565b60008060008060808587031215611fc157600080fd5b6000611fcf87828801611e64565b9450506020611fe087828801611e64565b9350506040611ff187828801611ee2565b925050606085013567ffffffffffffffff81111561200e57600080fd5b61201a87828801611eb8565b91505092959194509250565b6000806040838503121561203957600080fd5b600061204785828601611e64565b925050602061205885828601611e79565b9150509250929050565b6000806040838503121561207557600080fd5b600061208385828601611e64565b925050602061209485828601611ee2565b9150509250929050565b6000602082840312156120b057600080fd5b60006120be84828501611e8e565b91505092915050565b6000602082840312156120d957600080fd5b60006120e784828501611ea3565b91505092915050565b60006020828403121561210257600080fd5b600061211084828501611ee2565b91505092915050565b61212281612f74565b82525050565b61213181612f86565b82525050565b600061214282612e1c565b61214c8185612e32565b935061215c818560208601612ff7565b61216581613192565b840191505092915050565b600061217b82612e27565b6121858185612e43565b9350612195818560208601612ff7565b61219e81613192565b840191505092915050565b60006121b482612e27565b6121be8185612e54565b93506121ce818560208601612ff7565b80840191505092915050565b60006121e7602583612e54565b91507f68747470733a2f2f6e6674707265766965772e30786465762e636f6465732f3f60008301527f636f64653d0000000000000000000000000000000000000000000000000000006020830152602582019050919050565b600061224d603283612e43565b91507f4552433732313a207472616e7366657220746f206e6f6e20455243373231526560008301527f63656976657220696d706c656d656e74657200000000000000000000000000006020830152604082019050919050565b60006122b3601c83612e43565b91507f4552433732313a20746f6b656e20616c7265616479206d696e746564000000006000830152602082019050919050565b60006122f3602483612e43565b91507f4552433732313a207472616e7366657220746f20746865207a65726f2061646460008301527f72657373000000000000000000000000000000000000000000000000000000006020830152604082019050919050565b6000612359601983612e43565b91507f4552433732313a20617070726f766520746f2063616c6c6572000000000000006000830152602082019050919050565b6000612399606383612e54565b91507f222c20226465736372697074696f6e223a20224120686967686c79206163636c60008301527f61696d656420636f6c6c656374696f6e206f6620737175617265732e222c202260208301527f696d616765223a2022646174613a696d6167652f7376672b786d6c3b6261736560408301527f36342c00000000000000000000000000000000000000000000000000000000006060830152606382019050919050565b600061244b602c83612e43565b91507f4552433732313a206f70657261746f7220717565727920666f72206e6f6e657860008301527f697374656e7420746f6b656e00000000000000000000000000000000000000006020830152604082019050919050565b60006124b1600d83612e54565b91507f3c2f746578743e3c2f7376673e000000000000000000000000000000000000006000830152600d82019050919050565b60006124f1603883612e43565b91507f4552433732313a20617070726f76652063616c6c6572206973206e6f74206f7760008301527f6e6572206e6f7220617070726f76656420666f7220616c6c00000000000000006020830152604082019050919050565b6000612557602a83612e43565b91507f4552433732313a2062616c616e636520717565727920666f7220746865207a6560008301527f726f2061646472657373000000000000000000000000000000000000000000006020830152604082019050919050565b60006125bd602983612e43565b91507f4552433732313a206f776e657220717565727920666f72206e6f6e657869737460008301527f656e7420746f6b656e00000000000000000000000000000000000000000000006020830152604082019050919050565b6000612623602e83612e43565b91507f45524337323155524953746f726167653a2055524920736574206f66206e6f6e60008301527f6578697374656e7420746f6b656e0000000000000000000000000000000000006020830152604082019050919050565b6000612689600283612e54565b91507f227d0000000000000000000000000000000000000000000000000000000000006000830152600282019050919050565b60006126c9602083612e43565b91507f4552433732313a206d696e7420746f20746865207a65726f20616464726573736000830152602082019050919050565b6000612709603183612e43565b91507f45524337323155524953746f726167653a2055524920717565727920666f722060008301527f6e6f6e6578697374656e7420746f6b656e0000000000000000000000000000006020830152604082019050919050565b600061276f602c83612e43565b91507f4552433732313a20617070726f76656420717565727920666f72206e6f6e657860008301527f697374656e7420746f6b656e00000000000000000000000000000000000000006020830152604082019050919050565b60006127d5602983612e43565b91507f4552433732313a207472616e73666572206f6620746f6b656e2074686174206960008301527f73206e6f74206f776e00000000000000000000000000000000000000000000006020830152604082019050919050565b600061283b602f83612e43565b91507f4552433732314d657461646174613a2055524920717565727920666f72206e6f60008301527f6e6578697374656e7420746f6b656e00000000000000000000000000000000006020830152604082019050919050565b60006128a1600a83612e54565b91507f7b226e616d65223a2022000000000000000000000000000000000000000000006000830152600a82019050919050565b60006128e1602183612e43565b91507f4552433732313a20617070726f76616c20746f2063757272656e74206f776e6560008301527f72000000000000000000000000000000000000000000000000000000000000006020830152604082019050919050565b6000612947601d83612e54565b91507f646174613a6170706c69636174696f6e2f6a736f6e3b6261736536342c0000006000830152601d82019050919050565b6000612987603183612e43565b91507f4552433732313a207472616e736665722063616c6c6572206973206e6f74206f60008301527f776e6572206e6f7220617070726f7665640000000000000000000000000000006020830152604082019050919050565b6129e981612fde565b82525050565b60006129fb82856121a9565b9150612a0782846121a9565b91508190509392505050565b6000612a1f82846121a9565b9150612a2a826124a4565b915081905092915050565b6000612a40826121da565b9150612a4c82846121a9565b915081905092915050565b6000612a6282612894565b9150612a6e82856121a9565b9150612a798261238c565b9150612a8582846121a9565b9150612a908261267c565b91508190509392505050565b6000612aa78261293a565b9150612ab382846121a9565b915081905092915050565b6000602082019050612ad36000830184612119565b92915050565b6000608082019050612aee6000830187612119565b612afb6020830186612119565b612b0860408301856129e0565b8181036060830152612b1a8184612137565b905095945050505050565b6000602082019050612b3a6000830184612128565b92915050565b60006020820190508181036000830152612b5a8184612170565b905092915050565b60006060820190508181036000830152612b7c8186612170565b9050612b8b60208301856129e0565b612b986040830184612119565b949350505050565b60006020820190508181036000830152612bb981612240565b9050919050565b60006020820190508181036000830152612bd9816122a6565b9050919050565b60006020820190508181036000830152612bf9816122e6565b9050919050565b60006020820190508181036000830152612c198161234c565b9050919050565b60006020820190508181036000830152612c398161243e565b9050919050565b60006020820190508181036000830152612c59816124e4565b9050919050565b60006020820190508181036000830152612c798161254a565b9050919050565b60006020820190508181036000830152612c99816125b0565b9050919050565b60006020820190508181036000830152612cb981612616565b9050919050565b60006020820190508181036000830152612cd9816126bc565b9050919050565b60006020820190508181036000830152612cf9816126fc565b9050919050565b60006020820190508181036000830152612d1981612762565b9050919050565b60006020820190508181036000830152612d39816127c8565b9050919050565b60006020820190508181036000830152612d598161282e565b9050919050565b60006020820190508181036000830152612d79816128d4565b9050919050565b60006020820190508181036000830152612d998161297a565b9050919050565b6000602082019050612db560008301846129e0565b92915050565b6000604051905081810181811067ffffffffffffffff82111715612de257612de1613163565b5b8060405250919050565b600067ffffffffffffffff821115612e0757612e06613163565b5b601f19601f8301169050602081019050919050565b600081519050919050565b600081519050919050565b600082825260208201905092915050565b600082825260208201905092915050565b600081905092915050565b6000612e6a82612fde565b9150612e7583612fde565b9250827fffffffffffffffffffffffffffffffffffffffffffffffffffffffffffffffff03821115612eaa57612ea96130d6565b5b828201905092915050565b6000612ec082612fde565b9150612ecb83612fde565b925082612edb57612eda613105565b5b828204905092915050565b6000612ef182612fde565b9150612efc83612fde565b9250817fffffffffffffffffffffffffffffffffffffffffffffffffffffffffffffffff0483118215151615612f3557612f346130d6565b5b828202905092915050565b6000612f4b82612fde565b9150612f5683612fde565b925082821015612f6957612f686130d6565b5b828203905092915050565b6000612f7f82612fbe565b9050919050565b60008115159050919050565b60007fffffffff0000000000000000000000000000000000000000000000000000000082169050919050565b600073ffffffffffffffffffffffffffffffffffffffff82169050919050565b6000819050919050565b82818337600083830152505050565b60005b83811015613015578082015181840152602081019050612ffa565b83811115613024576000848401525b50505050565b6000600282049050600182168061304257607f821691505b6020821081141561305657613055613134565b5b50919050565b600061306782612fde565b91507fffffffffffffffffffffffffffffffffffffffffffffffffffffffffffffffff82141561309a576130996130d6565b5b600182019050919050565b60006130b082612fde565b91506130bb83612fde565b9250826130cb576130ca613105565b5b828206905092915050565b7f4e487b7100000000000000000000000000000000000000000000000000000000600052601160045260246000fd5b7f4e487b7100000000000000000000000000000000000000000000000000000000600052601260045260246000fd5b7f4e487b7100000000000000000000000000000000000000000000000000000000600052602260045260246000fd5b7f4e487b7100000000000000000000000000000000000000000000000000000000600052604160045260246000fd5b6000601f19601f8301169050919050565b6131ac81612f74565b81146131b757600080fd5b50565b6131c381612f86565b81146131ce57600080fd5b50565b6131da81612f92565b81146131e557600080fd5b50565b6131f181612fde565b81146131fc57600080fd5b5056fe416e204e465420772f20494420257320686173206265656e206d696e74656420746f202573646174613a6170706c69636174696f6e2f6a736f6e3b6261736536342c65776f6749434167496d3568625755694f6941695457467a644756796157356e49455630614756795a5856744969774b4943416749434a6b5a584e6a636d6c7764476c766269493649434a426269424f526c51675a6e4a76625342306147556761476c6e614778354947466a593278686157316c5a43427a63585668636d5567593239736247566a64476c76626949734369416749434169615731685a3255694f6941695a474630595470706257466e5a53397a646d6372654731734f324a68633255324e43785153453479576e6c434e474a586548566a656a4270595568534d474e4562335a4d4d32517a5a486b314d3031354e585a6a62574e3254577042643031444f58706b62574e705355684365567059546d786a626c70735556684f64317058546a425662555977595663344f556c7561453568567a56615646647364556c484d5778615746467053556861634670595a454e694d326335535770425a3031445158704f5645466e5458705664306c714e45744a5130466e53555234656d524962484e615644523157573147656c7054516a644a52317077596b64334e6b6c495a47396857464a7354336c43625749794e54424d5631706f596c6473633256556232646a4d6c5a355956645a4e306c48576e5a69626c4630597a4a734e6c70556232644e56464a335a55527a5a325a5564335a6a4d314931596b64564b304e705157644a5130453459323157616d5244516a4e685631497759555177615531555158644b55306c6e5955645763466f796144425155306c345455524262456c70516d31685633687a55464e4b61574a48526d706865556c6e54486f3053306c445157644a52486777576c686f4d456c495a7a6c4a616c5633536c4e4a5a3256554d476c4f5645467353576c43616d4a48526e706a656a427057573147656c705453576461527a6c305956633161474a755558525a62555a36576c643463474a7456546c4a62544677576b6453633170545357646b523159305a454d7861474a74546d39694d306b355357307863467048556e4e6155306b7256466447656d5248566e6c68567a5675535556574d474648566e6c6157465a3055454d354d467059614442515a32383454444e4f4d6c70364e443069436e303d4142434445464748494a4b4c4d4e4f505152535455565758595a6162636465666768696a6b6c6d6e6f707172737475767778797a303132333435363738392b2f46696e69736865642072656164696e6720746869732054657874626f6f6b204e465421a2646970667358221220dbd2af133e685781666bdc4485dd4463b16018d9dd59ebd3c4dfd36087ff774264736f6c63430008000033",
  "linkReferences": {},
  "deployedLinkReferences": {}
}